:100000000FC100006EC5000041C5000014C500000E
:10001000E7C40000BAC400008DC4000060C4000042
:1000200033C400002DC100002BC1000029C1000015
:1000300027C1000025C1000023C1000021C100002C
:100040001FC100001DC100001BC1000019C100003C
:1000500017C1000015C1000013C10000CBC3000090
:100060000FC1000091C3000066C3000009C1000079
:1000700007C1000005C1000003C1000001C100006C
:10008000FFC00000FDC00000FBC00000F9C0000080
:10009000F7C00000F5C00000F3C00000F1C0000090
:1000A000EFC00000EDC00000EBC00000E9C00000A0
:1000B000E7C00000E5C00000E3C00000E1C00000B0
:1000C000DFC00000DDC00000DBC00000D9C00000C0
:1000D000D7C00000D5C00000D3C00000D1C00000D0
:1000E000CFC0000077017F0157015F0167016F01F9
:1000F00087018F01CB01CE01BD01C101C501050200
:10010000D201D601DC01E001E401EA01EE01F201D5
:100110000502F801FC010002000021002400270074
:100120002A002D0030003300010100000401070106
:100130000A0100002200250028002B002E003100BB
:10014000340002010000050108010B010505050549
:10015000070508080808020202020A0A080804043F
:10016000040401010101010101010303030303036D
:100170000303040707070C0C0C0C0C0C0C0C0202FC
:10018000020206060606060606060B0B0B0B0B0BF9
:100190000B0B010210202008081020401020408086
:1001A000020102010804020101020408102040803B
:1001B00080402010080402018004020180402010C9
:1001C0000804020108040201010204081020408012
:1001D000010204081020408000000A0B02090C0DE7
:1001E0000E080703040100000000000000000000EA
:1001F00000000000000000000000000000000000FF
:1002000000000000121110000000000000000000BB
:100210000000000000000000000000000000BF0718
:1002200011241FBECFEFD1E2DEBFCDBF00E00CBF77
:1002300012E0A0E0B2E0E6E1F4E100E00BBF02C0B2
:1002400007900D92A839B107D9F723E0A8E9B2E0E9
:1002500001C01D92AD34B207E1F711E0C0E1D1E079
:1002600000E006C021970109802FFE010E94FD09D0
:10027000CF30D10780E00807A9F75ED40C94090AB3
:10028000BFCEE82FF0E0EE0FFF1FE050FE4F27E952
:1002900031E03183208390E08830910508F046C03A
:1002A000FC018827EE58FF4F8F4F0C94FD09809179
:1002B00069008C7F826080936900E89A089580913C
:1002C0006900837F886080936900E99A089580912E
:1002D00069008F7C806280936900EA9A089580911A
:1002E00069008F73806880936900EB9A089580910C
:1002F0006A008C7F826080936A00EC9A08958091F6
:100300006A00837F886080936A00ED9A08958091E7
:100310006A008F7C806280936A00EE9A08958091D3
:100320006A008F73806880936A00EF9A08958091C5
:10033000AB028F5F8093AB02089590E0FC01E8521E
:10034000FE4F4491FC01EE56FE4F2491FC01E45B0C
:10035000FE4F9491992309F466C0442309F455C0D3
:1003600050E0FA013197E231F10508F04EC08827DC
:10037000E658FF4F8F4F0C94FD09809180008F77D6
:1003800007C0809180008F7D03C080918000877FAF
:10039000809380003AC084B58F7702C084B58F7D8A
:1003A00084BD33C08091B0008F7703C08091B000CE
:1003B0008F7D8093B00029C0809190008F7707C017
:1003C000809190008F7D03C080919000877F809303
:1003D00090001BC08091A0008F7707C08091A00083
:1003E0008F7D03C08091A000877F8093A0000DC007
:1003F000809120018F7707C0809120018F7D03C0FD
:1004000080912001877F80932001E92FF0E0EE0F9B
:10041000FF1FEE5CFE4FA591B4918FB7F894EC915D
:100420002E2B2C938FBF08950895CF92DF92EF92D9
:10043000FF920F931F93CF93DF936C017A018B018F
:10044000C0E0D0E0CE15DF0589F0D8016D918D01B7
:10045000D601ED91FC910190F081E02DC601199536
:10046000892B11F47E0102C02196ECCFC701DF91E8
:10047000CF911F910F91FF90EF90DF90CF90089553
:10048000089580E090E00895FC01538D448D252F60
:1004900030E0842F90E0821B930B541710F0CF961E
:1004A000089501970895FC01918D828D981761F050
:1004B000828DDF01A80FB11D5D968C91928D9F5F9B
:1004C0009F73928F90E008958FEF9FEF0895FC0146
:1004D000918D828D981731F0828DE80FF11D858DF9
:1004E00090E008958FEF9FEF0895FC01918D228D8C
:1004F000892F90E0805C9F4F821B91098F73992711
:10050000089580EB92E0F1DF21E0892B09F420E0EF
:10051000822F0895FC01848DDF01A80FB11DA35A1D
:10052000BF4F2C91848D90E001968F739927848F13
:10053000A689B7892C93A089B1898C9180648C930A
:10054000938D848D981306C00288F389E02D8081F5
:100550008F7D80830895EF92FF920F931F93CF9327
:10056000DF93EC0181E0888F9B8D8C8D981305C003
:10057000E889F989808185FD23C0F62E0B8D10E076
:100580000F5F1F4F0F731127E02E8C8DE8120BC0E9
:100590000FB607FCFACFE889F989808185FFF5CF8E
:1005A000CE01B8DFF2CF8B8DFE01E80FF11DE35ACB
:1005B000FF4FF0820B8FEA89FB898081806207C040
:1005C000EE89FF896083E889F9898081806480836E
:1005D00081E090E0DF91CF911F910F91FF90EF901C
:1005E0000895CF93DF93EC01888D8823C1F0EA89C9
:1005F000FB89808185FD05C0A889B9898C9186FD1C
:100600000EC00FB607FCF5CF808185FFF2CFA88919
:10061000B9898C9185FFEDCFCE017CDFE8CFDF91EA
:10062000CF91089580E090E0892B19F06ADF811165
:1006300025C080E090E0892B41F080E090E0892B9C
:1006400021F00E94000081111CC080E090E0892B05
:1006500041F080E090E0892B21F00E9400008111A0
:1006600013C080E090E0892BA1F080E090E0892B1E
:1006700081F00E94000081110AC008950E940000CC
:10068000D8CF0E940000E1CF0E940000EACF0C9476
:1006900000000895009761F0FC0101900020E9F747
:1006A0003197AF01481B590BBC0180EB92E0BDCEE6
:1006B00080E090E008958F929F92AF92BF920F9347
:1006C0001F93CF93DF93CDB7DEB7A1970FB6F89402
:1006D000DEBF0FBECDBF19A2423008F44AE08E0142
:1006E0000F5D1F4F842E912CA12CB12CA5019401DC
:1006F00062D6E62FB901CA0101501109EA3014F49B
:10070000E05D01C0E95CD801EC93232B242B252B61
:1007100069F7C801BFDFA1960FB6F894DEBF0FBE20
:10072000CDBFDF91CF911F910F91BF90AF909F9060
:100730008F9008956AD61F920F920FB60F921124D0
:100740000BB60F922F933F934F935F936F937F93CB
:100750008F939F93AF93BF93EF93FF9380EB92E0C0
:10076000D9DEFF91EF91BF91AF919F918F917F91D2
:100770006F915F914F913F912F910F900BBE0F9012
:100780000FBE0F901F9018951F920F920FB60F92E9
:1007900011240BB60F922F938F939F93EF93FF9398
:1007A000E091C002F091C1028081E091C602F09117
:1007B000C70282FD12C090818091C9028F5F8F7342
:1007C0002091CA02821751F0E091C902F0E0E05591
:1007D000FD4F958F8093C90201C08081FF91EF91F9
:1007E0009F918F912F910F900BBE0F900FBE0F9086
:1007F0001F9018951F920F920FB60F9211242F93EE
:100800003F938F939F93AF93BF9380919D0290915D
:100810009E02A0919F02B091A00230919C0223E021
:10082000230F2D3720F40196A11DB11D05C026E828
:10083000230F0296A11DB11D20939C0280939D025F
:1008400090939E02A0939F02B093A0028091980281
:1008500090919902A0919A02B0919B020196A11DDC
:10086000B11D8093980290939902A0939A02B0933D
:100870009B02BF91AF919F918F913F912F910F90CC
:100880000FBE0F901F9018951F920F920FB60F92E8
:1008900011240BB60F922F933F934F935F936F9357
:1008A0007F938F939F93AF93BF93EF93FF93E091C9
:1008B0000E02F0910F021995FF91EF91BF91AF9148
:1008C0009F918F917F916F915F914F913F912F9168
:1008D0000F900BBE0F900FBE0F901F9018951F9298
:1008E0000F920FB60F9211240BB60F922F933F93D6
:1008F0004F935F936F937F938F939F93AF93BF9328
:10090000EF93FF93E0910C02F0910D021995FF9186
:10091000EF91BF91AF919F918F917F916F915F9177
:100920004F913F912F910F900BBE0F900FBE0F90E4
:100930001F9018951F920F920FB60F9211240BB6AD
:100940000F922F933F934F935F936F937F938F9368
:100950009F93AF93BF93EF93FF93E0910202F091C7
:1009600003021995FF91EF91BF91AF919F918F91E4
:100970007F916F915F914F913F912F910F900BBE9F
:100980000F900FBE0F901F9018951F920F920FB6E9
:100990000F9211240BB60F922F933F934F935F93B7
:1009A0006F937F938F939F93AF93BF93EF93FF9337
:1009B000E0910002F09101021995FF91EF91BF9132
:1009C000AF919F918F917F916F915F914F913F91E7
:1009D0002F910F900BBE0F900FBE0F901F90189588
:1009E0001F920F920FB60F9211240BB60F922F93F6
:1009F0003F934F935F936F937F938F939F93AF93A7
:100A0000BF93EF93FF93E0910A02F0910B021995C7
:100A1000FF91EF91BF91AF919F918F917F916F91D6
:100A20005F914F913F912F910F900BBE0F900FBE92
:100A30000F901F9018951F920F920FB60F921124CE
:100A40000BB60F922F933F934F935F936F937F93C8
:100A50008F939F93AF93BF93EF93FF93E09108021F
:100A6000F09109021995FF91EF91BF91AF919F917C
:100A70008F917F916F915F914F913F912F910F9047
:100A80000BBE0F900FBE0F901F9018951F920F92E4
:100A90000FB60F9211240BB60F922F933F934F93E3
:100AA0005F936F937F938F939F93AF93BF93EF93D6
:100AB000FF93E0910602F09107021995FF91EF91E3
:100AC000BF91AF919F918F917F916F915F914F9166
:100AD0003F912F910F900BBE0F900FBE0F901F9064
:100AE00018951F920F920FB60F9211240BB60F920A
:100AF0002F933F934F935F936F937F938F939F9326
:100B0000AF93BF93EF93FF93E0910402F09105023E
:100B10001995FF91EF91BF91AF919F918F917F9127
:100B20006F915F914F913F912F910F900BBE0F905E
:100B30000FBE0F901F901895789484B5826084BD85
:100B400084B5816084BD85B5826085BD85B58160D1
:100B500085BD80916E00816080936E00109281004F
:100B6000809181008260809381008091810081600A
:100B700080938100809180008160809380008091CB
:100B8000B10084608093B1008091B0008160809357
:100B9000B0008091910082608093910080919100DB
:100BA000816080939100809190008160809390009B
:100BB0008091A10082608093A1008091A10081605A
:100BC0008093A1008091A00081608093A00080911B
:100BD00021018260809321018091210181608093B5
:100BE00021018091200181608093200180917A0011
:100BF000846080937A0080917A00826080937A008A
:100C000080917A00816080937A0080917A00806878
:100C100080937A001092C100E091C002F091C1026D
:100C200082E08083E091BC02F091BD021082E091ED
:100C3000BE02F091BF0283E380831092C802E0916C
:100C4000C402F091C50286E08083E091C202F09177
:100C5000C302808180618083E091C202F091C3026F
:100C6000808188608083E091C202F091C30280811C
:100C700080688083E091C202F091C30280818F7D01
:100C80008083EFE9F1E02491E9E5F1E084918823A4
:100C900099F090E0880F991FFC01E85EFE4FA59146
:100CA000B491FC01EE5CFE4F859194918FB7F8945E
:100CB000EC91E22BEC938FBF8DE03FDBE6E9F1E0B6
:100CC0002491E0E5F1E084918823C1F090E0880F61
:100CD000991FFC01E85EFE4FC591D491FC01EE5CCA
:100CE000FE4FA591B4919FB7F8948881E22FE095CB
:100CF0008E2388838C91E823EC939FBF84E01DDBD7
:100D00001092AB021092A7021092A8021092A902B0
:100D10001092AA021092A6021092A5021092A102AD
:100D20001092A2021092A3021092A4021092AC029E
:100D30001092AD021092AE021092AF0282E292E0E7
:100D4000A9DC4AE065E070E080E090E0B4DC85E09A
:100D500098DAC4E1D2E02FB7F89480919D02909187
:100D60009E02A0919F02B091A0022FBF4091AC02C1
:100D70005091AD026091AE027091AF02841B950B51
:100D8000A60BB70B893E9340A105B10508F4F5C049
:100D9000EB98D0930B02C0930A022FB7F89480917E
:100DA0009D0290919E02A0919F02B091A0022FBF40
:100DB000F090AB028090AC029090AD02A090AE0299
:100DC000B090AF02BC01CD01681979098A099B096D
:100DD00001D29B01AC0160E070E08AE794E461D14C
:100DE0004B015C016F2D70E080E090E0F5D19B013C
:100DF000AC01C501B4017CD220E030E040E950E410
:100E000050D16093A7027093A8028093A902909397
:100E1000AA022FB7F89480919D0290919E02A09112
:100E20009F02B091A0022FBF8093AC029093AD02BD
:100E3000A093AE02B093AF0220E030E040E752E46E
:100E40006091A7027091A8028091A9029091AA02D4
:100E500028D120E030E04AE754E44AD28FD17093A1
:100E6000A6026093A502C090A102D090A202E090D9
:100E7000A302F090A402D701C601860F971FA11DFF
:100E8000B11D8093A1029093A202A093A302B093FC
:100E9000A40281E492E0FEDB6091A7027091A802B7
:100EA0008091A9029091AA0264D16B01770FEE089C
:100EB000FF08F7FE14C0E091B002F091B10201907A
:100EC000F081E02D6DE280EB92E01995662777279F
:100ED000CB016C197D098E099F094AE003C04AE0E5
:100EE000C701B601E8DB8DE492E0D4DBC090A70235
:100EF000D090A802E090A902F090AA02C701B60122
:100F000038D1072E000C880B990B66D19B01AC01E0
:100F1000C701B60161D020E030E040E251E4E8D101
:100F20002DD180E090E04AE0C6DB8FE492E0B2DBB6
:100F300085E592E0AFDB6091A5027091A60280E0AA
:100F400090E04AE0B8DB80E792E0A4DB87E792E03C
:100F5000A1DB6091A1027091A2028091A302909105
:100F6000A4024AE0A8DB82E992E094DB85E992E002
:100F700091DB1092AB0285E084D954DBECCEE0EB40
:100F8000F2E01382128288EE93E0A0E0B0E0848366
:100F90009583A683B78384E192E09183808385EC77
:100FA00090E09587848784EC90E09787868780EC33
:100FB00090E0918B808B81EC90E0938B828B82EC24
:100FC00090E0958B848B86EC90E0978B868B118ECE
:100FD000128E138E148E08955058BB27AA270ED058
:100FE0004DC13ED130F043D120F031F49F3F11F498
:100FF0001EF433C10EF4E095E7FB29C1E92F4FD170
:1010000080F3BA17620773078407950718F071F425
:101010009EF567C10EF4E0950B2EBA2FA02D0B01A3
:10102000B90190010C01CA01A0011124FF27591B2D
:1010300099F0593F50F4503E68F11A16F040A22F33
:10104000232F342F4427585FF3CF469537952795A4
:10105000A795F0405395C9F77EF41F16BA0B620BA3
:10106000730B840BBAF09150A1F0FF0FBB1F661FEA
:10107000771F881FC2F70EC0BA0F621F731F841F2D
:1010800048F4879577956795B795F7959E3F08F053
:10109000B3CF9395880F08F09927EE0F9795879512
:1010A00008950CD0EBC0E3D040F0DAD030F021F45A
:1010B0005F3F19F0CCC0511115C1CFC0F0D098F3EB
:1010C0009923C9F35523B1F3951B550BBB27AA27C9
:1010D00062177307840738F09F5F5F4F220F331F3B
:1010E000441FAA1FA9F333D00E2E3AF0E0E830D007
:1010F00091505040E695001CCAF729D0FE2F27D00A
:10110000660F771F881FBB1F261737074807AB07D7
:10111000B0E809F0BB0B802DBF01FF2793585F4F4C
:101120002AF09E3F510568F092C0DCC05F3FECF3AF
:10113000983EDCF3869577956795B795F7959F5F11
:10114000C9F7880F911D9695879597F90895E1E065
:10115000660F771F881FBB1F621773078407BA07C4
:1011600020F0621B730B840BBA0BEE1F88F7E0951F
:10117000089504D06894B111B5C0089598D088F04E
:101180009F5790F0B92F9927B751A0F0D1F0660F73
:10119000771F881F991F1AF0BA95C9F712C0B1308E
:1011A00081F09FD0B1E008959CC0672F782F8827E9
:1011B000B85F39F0B93FCCF3869577956795B395CD
:1011C000D9F73EF490958095709561957F4F8F4F3C
:1011D0009F4F0895E89409C097FB3EF49095809541
:1011E000709561957F4F8F4F9F4F9923A9F0F92FED
:1011F00096E9BB279395F695879577956795B7956B
:10120000F111F8CFFAF4BB0F11F460FF1BC06F5F50
:101210007F4F8F4F9F4F16C0882311F096E911C062
:10122000772321F09EE8872F762F05C0662371F083
:1012300096E8862F70E060E02AF09A95660F771F97
:10124000881FDAF7880F9695879597F9089597F98B
:101250009F6780E870E060E008959FEF80EC08955C
:1012600000240A9416161706180609060895002485
:101270000A9412161306140605060895092E0394FF
:10128000000C11F4882352F0BB0F40F4BF2B11F473
:1012900060FF04C06F5F7F4F8F4F9F4F089557FDD2
:1012A0009058440F551F59F05F3F71F04795880FD4
:1012B00097FB991F61F09F3F79F08795089512166B
:1012C00013061406551FF2CF4695F1DF08C0161617
:1012D00017061806991FF1CF8695710561050894C8
:1012E0000895E894BB2766277727CB0197F90895DF
:1012F0000BD0C4CFB5DF28F0BADF18F0952309F082
:10130000A6CFABCF1124EECFCADFA0F3959FD1F3C8
:10131000950F50E0551F629FF001729FBB27F00DA3
:10132000B11D639FAA27F00DB11DAA1F649F6627F8
:10133000B00DA11D661F829F2227B00DA11D621F47
:10134000739FB00DA11D621F839FA00D611D221F01
:10135000749F3327A00D611D231F849F600D211DE5
:10136000822F762F6A2F11249F5750408AF0E1F088
:1013700088234AF0EE0FFF1FBB1F661F771F881FD1
:1013800091505040A9F79E3F510570F060CFAACF11
:101390005F3FECF3983EDCF3869577956795B795BC
:1013A000F795E7959F5FC1F7FE2B880F911D9695E6
:1013B000879597F90895A1E21A2EAA1BBB1BFD0180
:1013C0000DC0AA1FBB1FEE1FFF1FA217B307E40724
:1013D000F50720F0A21BB30BE40BF50B661F771F7C
:1013E000881F991F1A9469F760957095809590955C
:1013F0009B01AC01BD01CF010895EE0FFF1F881FB7
:101400008BBF0790F691E02D199481E090E0F8945D
:0614100000C0F894FFCFBC
:101416001402140214021402140214021402140216
:1014260000000000AB0215024402F10275025302ED
:1014360067025365747570202D2073656E736F7225
:10144600496E746572727570742076616C7565206C
:1014560000466C6F7720726174653A20002E004C4E
:101466002F6D696E00202043757272656E74204C74
:10147600697175696420466C6F77696E673A2000FA
:101486006D4C2F5365630020204F75747075742062
:101496004C6971756964205175616E746974793A25
:0814A60020006D4C000D0A004E
:00000001FF
